:020000040800F2
:100000000000022061300008AD300008AD3000086B
:10001000AD300008AD300008AD3000080000000031
:10002000000000000000000000000000AD300008EB
:10003000AD30000800000000AD300008AD30000811
:10004000AD300008AD300008AD300008AD3000081C
:10005000AD300008AD300008AD300008AD3000080C
:10006000AD300008AD300008AD300008AD300008FC
:10007000AD300008AD300008AD300008AD300008EC
:10008000AD300008AD300008AD300008B11B0008ED
:10009000B51B0008AD300008A51B0008AD300008F6
:1000A000AD300008AD300008AD300008AD300008BC
:1000B000AD300008AD300008AD300008AD300008AC
:1000C000AD300008AD300008AD300008AD3000089C
:1000D000AD300008AD300008AD300008AD3000088C
:1000E000AD300008AD300008AD300008AD3000087C
:1000F000AD300008AD300008AD300008AD3000086C
:10010000AD300008AD300008AD300008AD3000085B
:10011000AD300008AD300008AD300008AD3000084B
:10012000AD300008AD300008AD300008AD3000083B
:10013000AD3000080000000000000000C51B0008F2
:10014000C91B0008AD300008B91B0008AD3000081D
:10015000AD300008AD300008AD300008AD3000080B
:10016000AD300008AD300008AD300008AD300008FB
:10017000AD300008AD300008AD30000800000000D0
:1001800000000000AD30000800000000000000008A
:10019000AD3000080000000000000000AD30000895
:1001A000000000000000000000000000AD3000086A
:1001B000AD300008AD300008AD300008AD300008AB
:1001C000AD3000080348044B834202D0034B03B117
:1001D00018477047CC090020CC090020000000001F
:1001E0000548064B1B1AD90F01EBA301491002D099
:1001F000034B03B118477047CC090020CC090020FD
:100200000000000010B5064C237843B9FFF7DAFF71
:10021000044B13B10448AFF300800123237010BDD9
:10022000D00900200000000080D9010808B5054B66
:100230001BB105490548AFF30080BDE80840FFF752
:10024000CFBF00BF00000000D409002080D9010802
:10025000A3F5803A704700BF174B002B08BF134B24
:100260009D46FFF7F5FF00218B460F461348144AC1
:10027000121A0BF06FFA0E4B002B00D098470D4B63
:10028000002B00D098470020002104000D000D48ED
:10029000002802D00C4802F0A4F80BF0FBFB200071
:1002A000290002F02DFB02F099F800BF00000800C1
:1002B00000000000F128000800000220D009002002
:1002C00030170020E32300080000000003681847EF
:1002D0000B6803607047704738B5174805F0F4FEA7
:1002E000164B1B78044633BB042000F071F910BB99
:1002F000134A144DE3B21478611CC9B20A2B117071
:1003000001D00D2B0BD1002304202B5500F044F914
:100310000C4A0D490848BDE8384005F0E7BE1829E9
:100320002B5508D9685402340420147000F034F9B5
:1003300006492A46EEE738BD400C0020800B00201D
:10034000ED090020EE090020D4530108EB53010809
:1003500010B5094B036003F1200280330446C0F856
:10036000BC20C0F8C030BC3005F09CFE204605F033
:10037000B1F9204610BD00BFC8660108A0F1BC005D
:10038000E6E7A0F1C000E3E72DE9F0474D494E4C08
:100390004E484F4E86B005F0A9FE00F013F94D49C6
:1003A0004A4805F0A3FE22464B49484805F0BBFEEB
:1003B0004A49464805F09AFE47494448324605F006
:1003C000B2FE424805F080FE3378227844493F4827
:1003D00005F08CFE207800F02FF91022002102A8F1
:1003E0000BF0B8F93F4B02933F48404B0593002276
:1003F00002A905F035F9059B13B19B6802A898473F
:100400003B4D4FF001082C7824B1012C4FD04446CD
:10041000A046F8E7032000F0DBF80746E8B100F05B
:100420001DF9804600F020F9074600F021F98246C8
:10043000384600F0AFF88146384600F0A9F82D495B
:10044000CDE900A04B462148424605F04FFE2C70F6
:10045000032000F0ABF80124DAE7042000F0B8F83C
:10046000E8B1254CDFF8A880237898F800202349CC
:10047000234800F081F8234B327818700146204859
:1004800000F0E2F898F8003032781F490F48013B3D
:1004900005F02CFE01232B7027700420D9E7B8F15A
:1004A000010FB5D11949094805F020FEB0E7002039
:1004B00000F08EF80028AAD00020287000F076F80E
:1004C000A5E700BF1B540108CC010020400C002010
:1004D0007F0B00205F54010876540108795401080D
:1004E00096540108D9020008840B0020F461010829
:1004F000800B0020AF540108ED090020EE09002018
:10050000B70A0020B60A00203D5501085C550108D5
:10051000EC09002010B50446FFF71AFF204602F050
:10052000C8F8204610BDA0F1BC00F3E7A0F1C00060
:10053000F0E7000007B54FF41653009303220023A1
:100540000221054804F01EFD044A0549024803B093
:100550005DF804EB01F040BF840B0020C8010020CF
:10056000510300080078B0FA80F040097047007825
:10057000431E58425841704710B51C460023037073
:100580004270224602300BF07BFCA01CC0B210BDB2
:100590004078704702307047034A01231168834056
:1005A0000B431360704700BF5C0C0020044A01231A
:1005B00003FA00F0136823EA00031360704700BFDA
:1005C0005C0C0020014B00221A6070475C0C00207C
:1005D000024A012383401068184070475C0C0020D9
:1005E000034B187808B9FFF7D7BF0128FBD0704735
:1005F000940C002070B506460C480C4615460BF0CE
:100600003FFC0B4B1E700B4B20461D70FFF7AAFFE3
:1006100020B10320BDE87040FFF7BEBF2046FFF7C2
:10062000A6FF08B10220F5E770BD00BF620C0020F4
:10063000610C0020600C0020014A024901F0D4B98D
:10064000F5050008E105000810B5044601F0F6F9CB
:10065000014B22781A7010BD940C0020014B1878C1
:10066000704700BF610C002000487047620C0020FA
:10067000014B1878704700BF600C0020C36810B5AC
:1006800004460BB19B689847204610BD38B5054617
:10069000064B45F8283B044604F0C1FB2846FFF70B
:1006A000EDFF204604F086FB204638BD7C6601083D
:1006B00010B50446FFF7EAFF204601F0FAFF204696
:1006C00010BD000010B5034B03600446FFF7DEFFCA
:1006D000204610BD9066010810B50446FFF7F2FFF2
:1006E000204601F0E6FF204610BD000008B50C488A
:1006F00004F038FB0A480B4B40F8283B102200213D
:100700000BF028F8064A08490548012382F83830DA
:10071000064B1360BDE80840054A01F05DBE00BF0E
:10072000980C00207C660108C50600089066010848
:10073000C80100200FB407B5064B04AA1B6852F885
:10074000041BD868019207F0F3FE03B05DF804EBD8
:1007500004B0704758040020014B1860704700BF78
:10076000D80C0020024B18600248FFF7E3BF00BF1F
:10077000E00C0020E6550108024B18600248FFF724
:10078000D9BF00BFDC0C00207355010808B500F08C
:1007900031FC012808D000F02DFC01460548FFF788
:1007A000C9FF4FF0FF3008BD002000F077FD0020AA
:1007B000F9E700BF895501082DE9F041BDF81C504B
:1007C000B5F5806F06460C4690461F4606D319487D
:1007D0002946FFF7AFFF0620BDE8F08100F046FC98
:1007E0004FFA88F000F04EFC384600F051FC0698B5
:1007F00000F05AFC204600F033FC6EB90B3C012C93
:100800000ED8012000F026FC65B9012000F052FC52
:1008100000F074FC0020DFE7012E01D10C2CF0D099
:100820000020EFE7002000F045FC284600F048FCDF
:10083000EEE700BFFE5501087047000084B038B5F0
:1008400004AC84E80F00DDE908540C2C12D91048E0
:100850002146FFF76FFF0C2000F002FC95B90B3C1E
:10086000012C13D8012000F0F5FBBDE8384004B09E
:1008700000F044BC052CF1D805482146FFF75AFF8B
:100880000620E9E7012D01D10C2CEBD00020EAE78E
:10089000BD55010884B038B504AC84E80F009DF85C
:1008A00031309DF8155033206BB300F02FFE40F02F
:1008B0004101C9B2332000F01EFE19213B2000F097
:1008C0001AFE9DF82F309DF832403BB31D211120B8
:1008D00000F011FE402000F019FE00F0330140202E
:1008E00000F009FE00210F2000F005FE00210D2080
:1008F00000F001FE012D1DD1D4B10520BDE8384026
:1009000004B000F079BE00F001FE00F0BE0141F03D
:100910000101332000F0EFFD1D21CFE71F21112041
:1009200000F0E9FD402000F0F1FD00F03F01D6E7C6
:100930000620E3E7BDE8384004B0704784B0F8B55E
:1009400006AC84E80F000898BDF832609DF834507A
:10095000BDF842700B9C00F02FFE1D2000F0D6FD6C
:100960009DF831309DF8301041EAC3010A9B41EAFD
:1009700083119DF8363041EA430141EA8501C9B24D
:100980001D2000F0B8FD1E2000F0C0FDC7F30121BE
:1009900000F00C0041EA04110143C9B21E2000F02E
:1009A000AAFDF9B21F2000F0A6FD310A202000F0B8
:1009B000A2FDF1B2212000F09EFD25B19DF8351079
:1009C000222000F098FD9DF837306BB14B2000F0ED
:1009D0009DFD60F07F01C9B24B2000F08CFD9DF8B9
:1009E0003810242000F087FD062C4FF031000FD185
:1009F00000F08CFD00F0F80141F00501312000F01D
:100A00007AFD0C21BDE8F840372004B000F073BD3A
:100A100000F07CFD00F0F80141F00301312000F00E
:100A20006AFD0A21EEE78021122000F064BD40211A
:100A3000122000F060BD07B5122000F067FD8DF8B0
:100A400007009DF80700C0F3401003B05DF804FBF9
:100A50002021122000F04FBD08B5192000F056FDEE
:100A6000030643BF4042C0F38500404240F3870085
:100A700008BD10B504461A2000F048FD002CB8BF90
:100A80008B3C4FEA2013B4BF00198B38184400B2D6
:100A900010BD38B50546132000F038FD0446014668
:100AA000284600F082FD204638BD00000FB407B58F
:100AB000064B04AA1B6852F8041BD868019207F081
:100AC00037FD03B05DF804EB04B070475804002014
:100AD00038B50D46044628B90C48FFF7E7FF4FF03C
:100AE000FF3038BD402905D90948FFF7DFFF6FF017
:100AF0000100F6E700F084FA0A2005F0E9F829463B
:100B0000204600F009FC0020EBE700BFC4560108B6
:100B1000F05601082DE9F0410D4614469846BDF8FF
:100B20001870079E00F0A8FA284600F09FFA4FFAC6
:100B300088F000F0A7FA384600F0AAFA304600F034
:100B4000B3FA204600F08CFA4DB90B3C012C0AD8C0
:100B5000012000F07FFABDE8F04100F0B7BA012DA6
:100B600001D10C2CF4D00020F3E70000024B1860F8
:100B70000248FFF79BBF00BFE40C00208E5601081F
:100B8000024B18600248FFF791BF00BFE80C00203D
:100B9000AC56010884B038B504AC84E80F00DDE938
:100BA00008549DF91C0000F03BFB0C2C12D9104896
:100BB0002146FFF77BFF0C2000F052FA95B90B3C61
:100BC000012C13D8012000F045FABDE8384004B0EC
:100BD00000F07CBA052CF1D805482146FFF766FFE6
:100BE0000620E9E7012D01D10C2CEBD00020EAE72B
:100BF000BD55010884B008B50DF1080C8CE80F0054
:100C00009DF80D30012B10D19DF827309BB1F521B7
:100C1000112000F070FC402000F078FC00F033015F
:100C200041F04001402000F066FCBDE80840032090
:100C300004B000F0E1BCF721112000F05CFC402082
:100C400000F064FC00F03F01EAE700F0FD0001283D
:100C50000CBF80200020704784B070B504AC84E8DD
:100C60000F0009209DF9404000F050FC06465A2034
:100C700000F04CFC05469DF81000FFF7E6FF06F07B
:100C80007F063043C0B2020600F0F00327D5112CD6
:100C9000CBBF45F0070505F0F805EDB245F00405BA
:100CA00005F00702072A12D1142CA8BF1424052C22
:100CB000B8BF0524611F1943C9B2092000F01BFC0D
:100CC0002946BDE870405A2004B000F014BC112C35
:100CD000A8BF1124022CB8BF0224A11EEBE70E2CE2
:100CE000A8BF0E2444EAE474013443EA0401E3E7B4
:100CF00084B0F0B58BB010AC84E80F009DF94C3097
:100D0000089314AD0FCD6C46159EBDF85A700FC4F4
:100D100095E80F0084E80F0010AB0FCBFFF79CFFA6
:100D2000129800F049FC9DF85F306BB14B2000F049
:100D3000EDFB60F07F01C9B24B2000F0DCFB9DF8B9
:100D40006010242000F0D7FB1D2000F0DFFB9DF891
:100D500059309DF8581041EAC301149B41EA8311B0
:100D60009DF85C3041EA83019DF85E3041EA430121
:100D7000C9B21D2000F0BFFB1E2000F0C7FB00F031
:100D80000F0141EA0611C9B21E2000F0B4FB390A76
:100D9000202000F0B0FB2120F9B200F0ACFB062EC1
:100DA0004FF0310010D100F0B1FB00F0F80141F03C
:100DB0000501312000F09FFB0C2137200BB0BDE86E
:100DC000F04004B000F097BB00F0A0FB00F0F80189
:100DD00041F00301312000F08EFB0A21EDE70821EC
:100DE000122000F088BB08B568B1332000F08EFBFC
:100DF00000F0BE01332000F07EFB19213B20BDE84E
:100E0000084000F078BB332000F080FB00F0BE010A
:100E100041F00101332000F06EFB1D21EEE738B5F3
:100E2000044622200D4600F066FB00210E2000F053
:100E300062FB00210D2000F05EFB012000F066FB4C
:100E400030F0F80304D100F0F1F8012004F040FF85
:100E500029462046BDE8384000F0A2BB0FB407B5D4
:100E6000064B04AA1B6852F8041BD868019207F0CD
:100E70005FFB03B05DF804EB04B07047580400203A
:100E800010B50C4C2379022B02D0032B07D010BDD8
:100E9000FFF7D2FC084B1B68BDE8104018472046FE
:100EA00000F0DEFB94F8280000F06CFB01232371B6
:100EB000024BF0E7EC0C0020E00C0020E80C0020D6
:100EC00010B5044603F04EFF2046074B40F8283B80
:100ED000102200210AF03EFC012384F83830034B35
:100EE0002360204610BD00BF7C66010890660108A3
:100EF0002DE9F041394C267988B0884617461D46C1
:100F000046B137483146FFF7A9FF4FF0FF3008B030
:100F1000BDE8F081FFF72AFE4046FFF731FE0E984C
:100F2000FFF72AFC3846FFF717FC2846FFF71AFCA4
:100F30002C48FFF793FF4FF4807005F057F92A4BC8
:100F4000186028B92948FFF789FF6FF00100DEE734
:100F5000274BA360042384F820304FF4FA636362C4
:100F60000E2323730723636108234FF00108638373
:100F700020460523638584F805802677E67784F884
:100F80001E8084F82160266184F81980667784F8D1
:100F9000228084F8288000F063FB25466F4605F820
:100FA000100B0FCD0FC795E80F0087E80F0094E8EE
:100FB0000F00FFF7EFFDA5F1100CBCE80F006F4626
:100FC0000FC795E80F0087E80F0094E80F00FFF7C0
:100FD00035FC84F80480304699E700BFEC0C002013
:100FE0007A570108B1570108A00D0020DE5701080B
:100FF0002021F636014B1879704700BFEC0C002019
:1010000008B5064803F00BFF054803F008FF00F0A1
:1010100024FB044B01221A7108BD00BFA80D00205B
:10102000600D0020EC0C0020FFF7EABF08B5064871
:1010300003F0F5FE054803F0F2FE00F00BFB044B55
:1010400001221A7108BD00BFA80D0020600D00200C
:10105000EC0C0020014B1876704700BFEC0C002010
:10106000014B5861704700BFEC0C0020014B186128
:10107000704700BFEC0C0020014B1873704700BF95
:10108000EC0C0020014B5876704700BFEC0C0020A0
:10109000014B5883704700BFEC0C0020014B83F8D4
:1010A0002E007047EC0C0020014B9860704700BF89
:1010B000EC0C0020014B83F822007047EC0C002060
:1010C000014B5885704700BFEC0C002070B50A4EEC
:1010D00088B0012006F1100500F023FA0FCD6C4610
:1010E0000FC495E80F0084E80F0096E80F00FFF7A3
:1010F000FFFD08B070BD00BFEC0C002070B50A4EBB
:1011000088B0012006F1100500F00BFA0FCD6C46F7
:101110000FC495E80F0084E80F0096E80F00FFF772
:101120000DFC08B070BD00BFEC0C0020034B4FF469
:101130008072002118680AF00DBB00BFA00D0020CE
:1011400010B5084C2379022B0BD1074803F067FE3A
:10115000FFF769FC01232371044BBDE810401B68B5
:10116000184710BDEC0C0020600D0020E00C0020A2
:101170002DE9F041224C2179022931D1FFF757FCAA
:10118000FFF759FC012805460DD1FFF761FC94F8E3
:10119000223003B925711B4803F041FE1A4B1B682E
:1011A000BDE8F0411847FFF757FC8046FFF761FCA8
:1011B000164D07462868FFF76CFC94F82230064667
:1011C0000BB9012323710F4803F029FE104B286847
:1011D0001C683A4643463146A446BDE8F0416047A4
:1011E000032908D10B4803F01AFEFFF7F8FD01238D
:1011F0002371094BD3E70948BDE8F041FFF72EBE44
:10120000EC0C0020600D0020DC0C0020A00D002064
:10121000D80C0020A80D0020E40C00202557010860
:1012200070B5094E8AB006F1100508900FCD6C46D6
:101230000FC495E80F0084E80F0096E80F00FFF751
:101240000BFD0AB070BD00BFEC0C00202DE970430F
:10125000044699460D46904604F08AFA636B23B91A
:1012600094F838300BB104F0EFF804F12806AE42E0
:101270000BD03046FFF702FA3EB1EB681BB15B685A
:10128000294630469847EB68636342464B46204602
:1012900003F0ADFDBDE8704304F080BAF0B5194E1F
:1012A0008DB006F110050746FFF740FF0FCD6C46E5
:1012B0000FC495E80F0084E80F0096E80F00FFF7D1
:1012C000E9FA02233371D7B11022002108A80AF0ED
:1012D00041FA0D4B089338460C4B0B9312F0AEFCC1
:1012E00000220B4B12F024FD13F09AF802460B4635
:1012F000084808A9FFF7AAFF08A8FFF7BFF90DB033
:10130000F0BD00BFEC0C0020810E0008F461010864
:1013100000408F40600D0020F0B5244C63798FB001
:1013200006460D461BB1012B08D0002712E02048CD
:10133000FFF794FD4FF0FF300FB0F0BD94F821009F
:10134000FFF751FD2846FFF7A9FE29463046FFF773
:1013500066FD676A174E08970FCE6D460FC596E873
:101360000F0085E80F0094E80F00FFF743FC03230C
:10137000102200210AA823710AF0ECF90E4B0A93FF
:1013800038460E4B0D9312F059FC00220C4B12F014
:10139000CFFC13F045F802460B460A480AA9FFF7AE
:1013A00055FF0AA8FFF76AF90020C5E7EC0C0020FA
:1013B00041570108FC0C0020810E0008F46101086F
:1013C00000408F40A80D002070B50F4E0F4D104CFF
:1013D0003046FFF775FD30460E4E2A46214600F096
:1013E000FBFF3046FFF76CFD30460B4E2A46214688
:1013F00000F0F2FF3046FFF763FD2A4621463046F3
:10140000BDE8704000F0E8BFA80D0020C801002032
:10141000C5060008600D0020200D002010B5044610
:10142000044B40F8B83BD4F8C4300BB19B689847E4
:10143000204610BD686701080FB407B5064B074981
:101440001B6805AAD868019207F072F803B05DF82E
:1014500004EB04B0704700BF58040020185801087E
:10146000F8B50D4C0D4F23681646E2681B040D4677
:10147000136040F08001094803F014FF013D2E4441
:10148000B54205D015F8011F384603F00BFFF7E70A
:10149000A36822681A60F8BDA40E0020DC0E0020AC
:1014A000F8B50E4C0E4F23681646E2681B040D4635
:1014B000136000F07F010A4803F0F4FE013D2E4462
:1014C000B54206D00021384603F0ECFE05F8010FC6
:1014D000F6E7A36822681A60F8BD00BFA40E0020DA
:1014E000DC0E002010B50446FFF798FF204601F0FF
:1014F000E0F8204610BD07B502AB012203F8011D3C
:101500001946FFF7ADFF03B05DF804FB07B50122F4
:101510000DF10701FFF7C4FF9DF8070003B05DF868
:1015200004FB10B504460120FFF7F0FFC0F3C01024
:10153000844226D0012C13D0FFF762FD0120FFF773
:10154000E5FF00F07F010120FFF7D5FF00214020DB
:10155000FFF7D1FF30214120BDE81040FFF7CBBF9E
:10156000FFF74EFD2046FFF7D1FF60F07F01C9B2C3
:101570002046FFF7C0FF00214020FFF7BCFF0021FD
:10158000E9E710BD10B504460120FFF7CAFF2CB1F2
:1015900034213920BDE81040FFF7ADBF1221F8E734
:1015A0000A4601460020FFF75BBF0A4601460020BD
:1015B000FFF776BF0000000010B512F03FFB0CA350
:1015C000D3E9002312F0DEFC12F08AFE0446C0F3D9
:1015D00007410620FFF78FFFC4F307210720FFF71D
:1015E0008AFFE1B20820BDE81040FFF784BF00BFCA
:1015F0000000000080844E40144910B50A7804466B
:1016000090B932B901230B70114BDA681B681B04C7
:1016100013600120FFF77AFF00F0F8012143012059
:10162000BDE81040FFF767BF094B2AB11A680020D8
:101630000870D96812040A60032C1A6803D0DB68AA
:1016400012041A60E5E79B68FBE700BFB80F0020B3
:10165000880E00200120FFF7CFBF0020FFF7CCBF8E
:101660002DE9FF475B4B5C4C00271F70054604F0DB
:101670007FF80121204600F087FB04F08FF82368F3
:10168000E2681B041360012004F022FB04F070F8F0
:101690002046394600F078FB04F080F8062004F07C
:1016A00017FB2E784D4C042E1CD104F061F83946FE
:1016B000204600F069FB04F071F8012004F008FBFB
:1016C00063681A6823681A4214BF01263E4604F074
:1016D0004FF82046012100F057FB04F05FF801208D
:1016E00004F0F6FA2368E2683D483E4C1B041360A0
:1016F0003D4B9A681B6813600821002203F0B0FD7F
:101700003A4804F0D7FA0020FFF776FF1022ACBB6E
:10171000214668460AF01EF869463548354C03F004
:10172000AEFC6846FEF7AAFF10227CBB2146684645
:101730000AF010F869463048DFF8CC802F4C03F0EF
:101740009EFC6846FEF79AFF4FF0030900235F1CDA
:10175000DBB2D8F80020B2FBF9F29A421ED903EBB3
:10176000430304EB030AE05CFFF7DBFE9AF8021088
:101770009AF80100FFF7BFFE3B46E8E70021684604
:1017800009F0E8FF1E4B00940393C5E7002168466B
:1017900009F0E0FF1A4B00940393CBE76879194CEA
:1017A000FFF7BFFE95F82800FFF7ECFE4220FFF799
:1017B000ADFE38B92046FFF73FFE4FF07E5004F0F3
:1017C00079FAF3E7A868FFF7F7FE304604B0BDE802
:1017D000F08700BFB80F0020C00E0020880E002048
:1017E000DC0E002071110008A40E0020CDCCCC3DF1
:1017F000E80D002041110008380E002000620108A9
:10180000F461010818580108D001002073B5224D79
:10181000224C234E0A21284603F0D6FB2846214DB0
:101820002246314600F0D8FD1321284603F0CCFBB8
:101830002246314628461C4D00F0CEFD4FF0FF33C6
:101840000093062205230721284603F05DFD22466A
:101850001649284600F0C0FD154B1C2422461846A8
:10186000002109F077FF162103F064FB114B22469B
:101870001846002109F06EFF002103F048FB0E4BD3
:1018800022460021184609F065FF212102B0BDE87B
:10189000704003F03CBB00BFE80D0020C8010020F1
:1018A00021500008380E0020DC0E00201D14000816
:1018B000A40E0020C00E0020880E00200FB407B533
:1018C000064B04AA1B6852F8041BD868019206F064
:1018D0002FFE03B05DF804EB04B0704758040020FD
:1018E00013B5084B0024CDE9003401220823072159
:1018F0002046FEF761FFFEF749FF034B1C7002B064
:1019000010BD00BF2021F636B90F002010B5FFF73B
:101910008BFBFFF7E5FF034B00201B68BDE8104081
:10192000184700BFFC0F002010B5FFF77DFBFFF745
:10193000D7FF034B02201B68BDE81040184700BFCB
:10194000FC0F0020202970B506460C4603D9154827
:10195000FFF7B4FF2024144D3146224628460AF0F2
:101960008FFA2B782E46B3B9104BAD781B78EB1A53
:101970005D425D410E4B1B787BB9FFF755FBFFF7CE
:10198000AFFF75B10B4B70781B680B49221FD2B2A9
:10199000BDE8704018470025ECE70848FFF78EFFC8
:1019A000EFE770BDC5580108BA0F002004100020F1
:1019B000B90F002000100020BE0F00200A590108B6
:1019C00008B5074B1B782BB9FFF72EFBBDE8084085
:1019D000FFF786BF0348BDE80840FFF76FBF00BFB1
:1019E000B90F00200A5901080C4B13B518700C4BA5
:1019F00019600C4B0C491A600C4B009304460C4ABE
:101A00000C48FFF775FA0C4B00221A705C70FFF758
:101A10000BFB02B0BDE81040FFF762BF04100020CE
:101A2000FC0F00200010002029190008C11900082F
:101A3000451900080D190008DA0F0020F7B5174FF7
:101A40003C7834B116482146FFF738FF012003B037
:101A5000F0BD1C2905D913482022FFF72FFF0320D2
:101A6000F5E7114D0E1DAA70F6B20A460146281D73
:101A70002C70EE700AF004FA0C4A0823CDE900320B
:101A80002146012307220E20FFF744F8314628465D
:101A9000FFF71EF801233B702046D8E7B90F00205E
:101AA0003A5801087B580108DA0F00202021F63649
:101AB00043692DE9F0410D46D907044628D58168D0
:101AC000334F8268334E836833483940B94202EA63
:101AD000060204BF0127A760B24203EA000304BF65
:101AE0004FF48076A660834204BF4FF48030A0603C
:101AF0002748814205D027498A4202D0264A93428C
:101B000006D1264B264A1B6852F82500012198472A
:101B1000E2686369920708D09F0706D51F4B204AE9
:101B20001B6852F8250000219847A1696269636922
:101B30008E070AD5900508D5190406D5174B184A03
:101B40001B6852F8250005219847A76966696269F4
:101B500017F0040706F4806609D046B1120406D5D2
:101B60000E4B0F4A1B6852F82500072198476369FE
:101B70005FB156B11B0408D5084B094A1B6852F8DF
:101B800025000221BDE8F0411847BDE8F08100BF03
:101B900003000004000300080000031010100020E0
:101BA0000810002000210148FFF782BF00640040B8
:101BB000FFF7F8BFFFF7F6BF01210148FFF778BF35
:101BC00000680040FFF7F8BFFFF7F6BF30B50368C5
:101BD00091FAA1F4B4FA84F491FAA1F10325B1FACF
:101BE00081F1640005FA04F4490023EA040302FACF
:101BF00001F11943016030BD00B5002389B0072809
:101C00006FD8DFE800F00413202D3A4754610093A9
:101C1000364B37481A6B42F001021A631B6B03F014
:101C200001030093009B09B05DF804FB01932F4B67
:101C300030481A6B42F002021A631B6B03F0020376
:101C40000193019BEFE70293284B2B481A6B42F05C
:101C500004021A631B6B03F004030293029BE2E786
:101C60000393224B25481A6B42F008021A631B6B40
:101C700003F008030393039BD5E704931B4B204811
:101C80001A6B42F010021A631B6B03F010030493EB
:101C9000049BC8E70593154B1A481A6B42F02002C3
:101CA0001A631B6B03F020030593059BBBE70693A8
:101CB0000E4B15481A6B42F040021A631B6B03F07F
:101CC00040030693069BAEE70793084B0F481A6B39
:101CD00042F080021A631B6B03F080030793079B9B
:101CE000A1E70B4804F0ACF800209CE70038024064
:101CF000000002400004024000080240000C0240C4
:101D0000001002400014024000180240001C024073
:101D100057590108431C10B5044604D176220649E0
:101D2000064803F0D1FB2046002100F00DFE04F030
:101D30000F040120A04010BD78590108D2590108B4
:101D400070B504464B1C0E46218216D0C1F3031019
:101D5000FFF752FF05463046FFF7DCFF238A074AAC
:101D6000656103F00F03206052F82330A36105F191
:101D7000100318356360A560E56070BDF06501086B
:101D8000B0F9100000F078BE0A4619B981694069BF
:101D9000FFF71CBF0122F9E74C23F0B54343224E65
:101DA000224F1A1D324400244FF0010E1E448C4273
:101DB00005D10146BDE8F0401D4804F041B8336844
:101DC0000EFA04F51D422BD0136B7D690EFA03F356
:101DD0002B4225D0D2F818C07B61156805B3FA688C
:101DE00033EA020203D1BA6833EA020214D10F4A7D
:101DF000916833EA010103D1D26833EA02020DD1BE
:101E0000DCF81020134214BF01210221094B28469F
:101E10001B68BDE8F04018470221F7E70121F5E70C
:101E200001340432C3E700BF14100020003C01401D
:101E30000C5A01082812002006210846FFF7ACBF03
:101E400005210846FFF7A8BF01210420FFF7A4BF22
:101E500001210320FFF7A0BF01210220FFF79CBF53
:101E600001210846FFF798BF01210020FFF794BF2A
:101E7000012910B518D11B4C838952B1A26803F017
:101E80000F0399401143A160836843F0010383600D
:101E900010BDA26803F00F03994022EA0101A1607E
:101EA000836823F00103F2E70229F1D10D49838908
:101EB0005AB1CC6803F00F03012202FA03F3234363
:101EC000CB60836843F00203E1E7CA6803F00F03C5
:101ED000012404FA03F322EA0303CB60836823F0AE
:101EE0000203D4E7003C0140B0F90C3099B270B560
:101EF00001F00F0606F00C0404F1804404F59C3454
:101F000001F00301A56889000F228A40C3F303137F
:101F100025EA02058B402B43A3600F4B0122196871
:101F2000B240114319608468E50742BF99681143C4
:101F30009960A10742BFD9680A43DA6090F900307E
:101F4000002B08DB5909012203F01F0302FA03F3F7
:101F5000024A42F8213070BD003C014000E100E03F
:101F60002DE9F04F92464A1C85B080460C4666D05B
:101F700000220392334A344F516C41F48041516442
:101F8000526C02F480420392039A04F00F090C226F
:101F900002FB0972C4F303105568062D47D8DFE829
:101FA00005F0043A3C3E40424400284E0193FFF7BE
:101FB00023FE0C2101FB09F17A1857F801E0244FA8
:101FC000A8F80C404C21694301247B5892F9082061
:101FD000C8F8045004FA0EF44FF0000B1C4388F8C4
:101FE0000020C8F808B07C50132101FB05E507EB81
:101FF0008501019B4B60174BC861C3F800A0164BCD
:10200000C1F834909B681032404643F82260FFF7D5
:102010006BFF584610E0114EC8E7114EC6E7114E4F
:10202000C4E7114EC2E7114EC0E7114EBEE711489A
:1020300003F006FF4FF0FF3005B0BDE8F08F084613
:10204000FAE700BF00380240C8640108691E0008B2
:10205000141000202812002000ED00E0611E00088E
:10206000591E0008511E0008491E0008411E0008A4
:10207000391E0008E55901088389184A03F00F0347
:10208000012110B501FA03F39468DB431C4094600E
:10209000D4681C40D46014682340136090F9003069
:1020A000002B0CDB5A0903F01F0301FA03F3203263
:1020B0000B4941F82230BFF34F8FBFF36F8F90F978
:1020C0000030002B09DB5A09012103F01F0301FA3C
:1020D00003F36032024941F8223010BD003C014058
:1020E00000E100E0838903F00F020C235343104A00
:1020F00070B54468D658FFF7BFFF4C210D4A6143C5
:10210000012000FA06F55058132303FB046320EA6C
:102110000500505002EB830000214160981D0C33F4
:1021200002EB800002EB83034160596070BD00BF89
:10213000C86401081410002008B502F083FD0020D7
:1021400008BD000008B50A4B1B684BB102F0F6FE53
:1021500003F033FD4FF47A72002312F031F908BD19
:1021600002F0C4FD4FF47A73B0FBF3F008BD00BF7A
:102170002C12002010B588B003F0FAFA052101A84E
:1021800002F0D8FE0424039B019A1A60962003F003
:102190009FFD019B049A1B041360962003F098FD99
:1021A000013CF0D10424039B019A1A604FF4C870DB
:1021B00003F08EFD019B049A1B0413604FF4C8705A
:1021C00003F086FD013CEED1DCE7000070B50D4662
:1021D000A0B0044603F0CCFA2B4622468021684684
:1021E00009F006F8051E03DC03F0D8FA20B070BD34
:1021F000094B1B6823B903220221084800F018FD8F
:10220000064E00241DF804103046013400F0F2FEA2
:10221000A542F7D1E8E700BF481200201C150020B6
:102220000FB407B504A951F8040B0191FFF7CEFFD5
:1022300003B05DF804EB04B07047000008B502F08D
:10224000AFFC00F035FF02F09BFC02F0A9FC024B52
:1022500001221A6008BD00BF2C1200200020704728
:10226000036801221B6900211847036800221B69CB
:102270001146184703681B69184703689B6918478C
:1022800003689B6A184700290CBF6FF018000020F4
:102290007047012070471120704770476FF01C0095
:1022A00070476FF01500704701207047002070479D
:1022B00070470000F8B5074E15460C468F18BC4213
:1022C00005D014F8011B304600F094FEF7E72846CD
:1022D000F8BD00BF1C15002038B58DB215F0010403
:1022E00005D0084800F020FC041C18BF0124EB06B0
:1022F00005D5044800F02EFC08B144F01004204637
:1023000038BD00BF1C15002010B5044603F076FF51
:10231000204610BD10B50C462AB1044800F058FE06
:102320002070012010BD104610BD00BF1C150020FC
:1023300038B51D46074B0360074B1B68044633B98D
:10234000064800F075FC2946044800F039FC204698
:1023500038BD00BF90650108481200201C15002000
:10236000002070470020704708B5012000F036F8C3
:102370000C4A136810B51844EFF30881884205D35E
:10238000094B0C221A604FF0FF3010BD07490C6852
:1023900024B10749096821448842F1D210601846E7
:1023A00010BD00BFD4020020E01400204012002025
:1023B00044120020074C08B523680546986807F0CA
:1023C00089FF2368D86807F085FF0DB1FFF7D2FEBB
:1023D000FEE700BF580400200120704708B5FFF752
:1023E000E9FF01207047002108F0F2BC07F0ACBF04
:1023F0007047704708B5FFF7FBFF08BD08B5FFF74A
:10240000F8FF08BD10B5037803F00303012B044661
:102410000CD02BB140F2A9520549064803F054F8FC
:10242000237843F002032370012010BD002010BD6B
:10243000A95A0108005B010810B5037803F00303F3
:10244000022B044605D040F2B1520549054803F07D
:102450003BF8237823F0030343F00103237010BDFE
:10246000A95A0108265B01083F2870B504462FDCF5
:10247000184D55F820305A1C13D1022811DCFFF7F3
:1024800071FF034658B92046FFF76AFF034630B98B
:10249000114E3378BFF35B8FDB0704D50F4B45F844
:1024A0002430184670BD3046FFF7ACFF0028F5D049
:1024B0004FF41653032202210848FFF739FF304634
:1024C000FFF7BAFF064A07490448FFF785FFE5E72B
:1024D0000023E6E7D4010020301200203C12002047
:1024E000C8010020B122000838B50546FFF7BCFF3F
:1024F0000B4B002443F8254030B909F0C5FA0923F5
:1025000003604FF0FF3038BD03685B699847051ED4
:1025100004DA09F0B9FA6D420560F2E7204638BDE9
:10252000D4010020FFF7E0BF38B50C461546FFF791
:102530009BFF38B909F0A8FA092303604FF0FF3474
:10254000204638BD03682146DB682A469847041EAA
:10255000F6DA09F099FA64420460EFE708B5131E51
:1025600006DA09F091FA162303604FF0FF3008BD38
:1025700004D0FFF7D9FF40EAE07008BD184608BD57
:1025800038B50C461546FFF76FFF38B909F07CFAED
:10259000092303604FF0FF34204638BD036821460D
:1025A0009B682A469847041EF6DA09F06DFA6442E1
:1025B0000460EFE7002A08B503DBBDE80840FFF739
:1025C000DFBF09F061FA162303604FF0FF3008BD4A
:1025D00010B5FFF749FF044628B909F055FA092359
:1025E0000360204610BD0368DB699847041EF8DAD3
:1025F00009F04AFA644204600024F2E71FB504229D
:102600000C4640230DEB020101900DF109008DF8FD
:10261000083009F035FC214602A808F057F80446B6
:1026200030B10198FFF7D4FF10B12046FFF7DBFE71
:10263000204604B010BDFFF7CBBF38B50C46154699
:10264000FFF712FF38B909F01FFA092303604FF0B2
:10265000FF34204638BD036821461B692A46984747
:10266000041EF6DA09F010FA64420460EFE7FFF79F
:10267000E4BF38B50D46FFF7F7FE044630B909F060
:1026800003FA092303604FF0FF3038BD0368DB69AC
:102690009847002814BF4FF400534FF400436B6079
:1026A000236820469B6A98472861002038BDFFF7C1
:1026B000E0BF03F0A3BD0000034610B553F8042BA0
:1026C000044602B9036022689A4204D05E2203499C
:1026D000034802F0F9FE206810BD00BF365A010819
:1026E000955A010810B504460948FFF7E5FF002395
:1026F000084A194652F82300A04208BF42F82310A6
:102700000133402BF6D10248FFF7D6FF10BD00BFC2
:1027100034120020D401002010B50F48FFF7CCFF81
:102720000E4B032453F824206AB10134402CF9D114
:1027300009F0AAF9182303600748FFF7BDFF4FF01F
:10274000FF34204610BD4FF0FF32034843F82420E9
:10275000FFF7B2FFF5E700BF34120020D4010020DC
:1027600010B50446FFF7D8FF0028A4BF014B43F87B
:10277000204010BDD401002070B506460C46FFF77E
:10278000EFFF054690B12146FFF738FF044630B908
:10279000074B53F82520964203D143F825002046E5
:1027A00070BD09F071F909230360F8E70446F6E704
:1027B000D40100200EB42DE9F04185B00546FFF7A5
:1027C000ABFF041E13DB0023294602A8019303F08C
:1027D0000BFA02A803F05AFA1B4D064668B909F035
:1027E00053F91323036045F824604FF0FF3420466B
:1027F00005B0BDE8F04103B0704702A803F034FA19
:10280000074602A837B103F038FA0190019B45F85A
:102810002430ECE703F01FFA06460028DFD00368F7
:1028200002A8D3F8088003F00BFA0B9B024601A91B
:102830003046C04706460028E8D009F025F9764220
:10284000066045F82470D0E7D401002073B50E4629
:102850001849054609F054F9044620B9FFF704FE6B
:10286000204602B070BD1449284609F049F920B944
:102870000120FFF7F9FD0124F2E71049284609F08D
:102880003FF920B90220FFF7EFFD0224E8E72B789B
:10289000402B07D10422691C0DEB020009F0F0FA6D
:1028A000019CDDE726F400412846FFF783FF04463C
:1028B000D6E700BFE0650108E7650108D8650108B3
:1028C00070477047074B08499A68084810B5043AA2
:1028D00052F8044F41F8044F8142F9D14FF00052B1
:1028E0009A6010BD00ED00E0FCFFFF1FC00100205A
:1028F00008B5FFF7E7FFFFF7A1FCFFF7E2FF08BD10
:1029000008B5FFF7DDFFBDE80840FDF73DBD30B578
:10291000C36891FAA1F4B4FA84F491FAA1F1032501
:10292000B1FA81F1640005FA04F4490023EA0403D2
:1029300002FA01F11943C16030BD012A02D0022A16
:1029400018BF0022FFF7E3BF2DE9F0410E46411CFE
:10295000044604D13E224449444802F0B5FD04F047
:102960000F08434BC4F3031053F82850FFF744F902
:1029700006F007070446836895FAA5F1B1FA81F1DC
:1029800095FAA5F20320490000FA01F1B2FA82F2A9
:1029900023EA01035200022101FA02F21343A36069
:1029A00087425AD8DFE807F05E1D021DB8F1070F15
:1029B000C6F303203BD9626A2B0A93FAA3F1B1FA5A
:1029C00081F193FAA3F34FF00F0EB3FA83F389006A
:1029D0000EFA01F19B0022EA010200FA03F313430D
:1029E00063623B46226895FAA5F0B0FA80F095FA4A
:1029F000A5F14FF0030EB1FA81F140000EFA00F09C
:102A0000490022EA00028B40013F1343012F23605B
:102A100005D8636832074CBF2B43AB436360C6F3F2
:102A2000011229462046BDE8F041FFF786BF226A21
:102A300095FAA5F3B3FA83F395FAA5F14FF00F0ECB
:102A4000B1FA81F19B000EFA03F3890022EA030236
:102A500000FA01F313432362C3E7672202490548E2
:102A600002F032FD0023BDE7655B0108D259010881
:102A7000F0650108E45F0108431C70B506460D4689
:102A800004D188221B491C4802F01EFD06F00F02EB
:102A90001A4BC6F3031053F82240FFF7ADF804FBBE
:102AA00004F2016802EB42030B40B3FBF2F3013B7B
:102AB000012B05D8EB1E022B436809D82343436042
:102AC000032D08D101222146BDE87040FFF735BF34
:102AD00023EA04034360012DF4D0052D01D0022D1B
:102AE00001D10222EFE721460022BDE87040FFF746
:102AF0000EBF00BF655B0108D2590108F0650108EF
:102B00000FB407B5064B07491B6805AAD8680192A0
:102B100005F00EFD03B05DF804EB04B0704700BF94
:102B200058040020BD5B01084368094A9B0182B03C
:102B3000D3581A68120706D5002201921A6801922A
:102B40005A680192019A1868C0F3401002B07047A9
:102B5000681500204368034A9B01D3581868C0F3E6
:102B6000C01070476815002042681449920110B4E3
:102B700004685450531882685A60C2689A600269A7
:102B8000DA6042691A61026A9A610022DA84DA61C3
:102B90009A84DA859A85B0F91A20013206D1082282
:102BA0005A6118465DF8044B01F02FBDB0F91820AA
:102BB00001320CBF04220C22F2E700BF681500208E
:102BC00010B581600C46FFF7CFFF28B121460348BE
:102BD000BDE81040FFF794BF10BD00BFBD5B01080A
:102BE000124B984217D0A3F54C43984215D003F5E9
:102BF0008063984213D003F58063984211D003F5A7
:102C0000806398420FD003F5444398420CBF0520DF
:102C10004FF0FF30704700207047012070470220BE
:102C20007047032070470420704700BF0010014028
:102C3000F0B50E4687B004465B493046154602F0B3
:102C4000B5FA5A490746284602F0B0FA0146384616
:102C500002F086FA2060013004D13D2254495548E3
:102C600002F032FC022E0CD0032D0AD04E49022075
:102C700002F09CFA874202D14F4803F0E1F80027A6
:102C800000E001274D4B206898424FF000031AD115
:102C900000934B4B5A6C42F010025A645B6C03F089
:102CA00010030093009B474B984229D100230593C2
:102CB000434B5A6C42F020025A645B6C03F02003D1
:102CC0000593059B1CE0404A90420BD101933C4B7D
:102CD0001A6C42F400321A641B6C03F40033019343
:102CE000019BE0E7394A904240D10293344B1A6C81
:102CF00042F480221A641B6C03F480230293029B2B
:102D0000FFF76EFF0028606004DAA42228493048EB
:102D100002F0DAFB2449304602F0FEF92349284646
:102D200002F0FAF9721C03D001213046FFF7A4FE2D
:102D30006B1C03D001212846FFF79EFE4FF416536B
:102D4000A3600023E36023616361236226836583BC
:102D50002046FFF709FF3FB11E4B1F4801221A60B2
:102D600021464C2209F08CF807B0F0BD1B4A904276
:102D70000BD10393124B1A6C42F400221A641B6CA1
:102D800003F400230393039BBAE7154A90428AD1C8
:102D900004930B4B1A6C42F480121A641B6C03F4FC
:102DA00080130493049BABE750640108D8630108C7
:102DB000E75B0108435C01085F5C0108001001400B
:102DC0000038024000140140004400400048004028
:102DD000945C0108481200201C150020004C0040A3
:102DE00000500040002808DB4209012300F01F00CA
:102DF00003FA00F0014B43F82200704700E100E0C5
:102E000000280DDB4309012200F01F0002FA00F048
:102E10002033044A42F82300BFF34F8FBFF36F8F74
:102E2000704700BF00E100E0F7B5FFF7D9FE071ECD
:102E300026DB144E56F8270010B3134CBD0163591E
:102E40001A68120606D5DB68190603D50F4B012157
:102E50001B68984763591A68920608D5DB6898067C
:102E600005D50A4B56F827001B680021984763597F
:102E70001A68110704D55A69D20744BF5B680193E9
:102E800003B0F0BD50120020681500204C12002045
:102E90000148FFF7C9BF00BF001401400148FFF718
:102EA000C3BF00BF005000400148FFF7BDBF00BFD7
:102EB000004C00400148FFF7B7BF00BF004800408A
:102EC0000148FFF7B1BF00BF004400400148FFF7D1
:102ED000ABBF00BF00100140034B19604168034BBA
:102EE00043F82120704700BF4C12002050120020F0
:102EF00030B490E818002C48834233D00AD8A0F5AB
:102F00000060834228D000F58060834227D00023F0
:102F100018460FE0254883420AD000F580608342BE
:102F200023D0A0F544408342F1D1214B352001E06C
:102F3000204B2520204DA401FAB1C9B92959CA68EE
:102F400042F02002CA601D4A00F11001926830BCB4
:102F500042F82130FFF746BF194B2620EAE7194B0C
:102F60002720E7E7184B3420E4E7184B4720E1E738
:102F70002959CA6842F08002E4E72B59DA6849B956
:102F800022F02002DA60DB6813F0800F09D130BC38
:102F9000FFF736BF22F08002DA60DB6813F0200F03
:102FA000F4E730BC704700BF004C00400010014007
:102FB0009D2E0008CD2E00086815002000ED00E0D1
:102FC000C12E0008B52E0008A92E0008912E000879
:102FD00038B5446805462846FFF7A6FD0028FAD014
:102FE000A401034B1B595868C0F3080038BD00BF4B
:102FF0006815002070B5456806460C463046FFF758
:10300000A9FD0028FAD0AD01024B5B59C4F30804B6
:103010005C6070BD6815002008B50E4AC36D934210
:1030200014D008D8A2F5806293420FD00A4802F06B
:1030300007FF002008BD094A934203D002F58062D1
:103040009342F3D1BDE8084000F044B9BDE8084020
:1030500000F030B9003C0040A65C0108003001409F
:10306000DFF830D0002103E00B4B5B5843500431B4
:103070000A480B4B42189A42F6D30A4A02E0002350
:1030800042F8043B084B9A42F9D301F09DFCFDF74E
:10309000E3F87047000002208CD90108C801002025
:1030A000CC090020D009002030170020FEE770472F
:1030B00008B50B4B1A6842F400721A601A6842F4A1
:1030C00080621A601A6842F480721A60032000F06D
:1030D00009F80F20FFF730F8FFF7E9FF002008BDDF
:1030E000003C0240074AD36823F4E0631B041B0C36
:1030F00043F0BF63000243F4003300F4E060034395
:10310000D360704700ED00E037B500230193184B02
:10311000184C1A6C42F080521A641B6C03F08053F6
:103120000193019B144B01221A60FFF70BF805462F
:103130006368DA030BD5114B0E4C01221A60FFF7BE
:1031400001F8054663689B030AD5002006E0FEF7F8
:10315000F9FF401BB0F57A7FEAD9032003B030BDF8
:10316000FEF7F0FF401BB0F57A7FEBD9F5E700BF23
:10317000003802400070004040000E4244000E4201
:103180002DE9F0410D46044610B90120BDE8F0815B
:10319000444B1A6802F00F028A4228D321688F0735
:1031A0002DD4C80740D43F4B1A6802F00F02954255
:1031B00066D3226851076CD4130707D53A4A2169B0
:1031C000936823F4604343EAC103936000F0B8FAC4
:1031D000354B364A9B68C3F30313D35CD840344B5A
:1031E00018600F20FEF7A8FF0020BDE8F081CAB2EA
:1031F0001A701B6803F00F039942C6D1CEE72A4B21
:1032000011F0040F1EBF9A6842F4E0529A600E0754
:1032100042BF9A6842F460429A609A68A06822F0BD
:10322000F00202439A60BCE762681F4B012A1DD17D
:103230001B6813F4003FA8D01B4EB36823F00303B0
:103240001343B360FEF77EFF41F288380746B36848
:10325000626803F00C03B3EB820FA4D0FEF772FF99
:10326000C01B4045F3D90320BDE8F081911E012920
:103270001B6802D813F0007FDDE713F0020FDAE7D6
:10328000EAB21A701B6803F00F039D427FF47DAF12
:103290008FE70549E0688B6823F4E05303438B60B4
:1032A0008AE700BF003C0240003802404066010847
:1032B000D8020020044B054A9B68C3F38223D35CE9
:1032C000034A1068D8407047003802405066010831
:1032D000D8020020044B054A9B68C3F34233D35CF9
:1032E000034A1068D8407047003802405066010811
:1032F000D80200200F2303600B4B9A6802F00302F0
:1033000042609A6802F0F00282609A6802F4E05229
:10331000C2609B68DB0803F4E0530361034B1B6846
:1033200003F00F030B60704700380240003C02407E
:1033300003682DE9F74313F0010604460BD0AA49B0
:10334000866BD1F88C2022F0C0623243B6FA86F642
:10335000C1F88C2076099D070BD5A348E16BD0F806
:103360008C2022F0C0520A430029C0F88C2008BFEC
:10337000012613F0040512D09B49256BD1F88C204F
:10338000B5F5801F22F4401242EA050218BFB5FAD3
:1033900085F5C1F88C2012BF6D090025012618079C
:1033A0000FD59148616BD0F88C2022F440020A437B
:1033B000B1F5800FC0F88C2000F00981002908BF0A
:1033C0000125990633D500230193874B874F1A6C4B
:1033D00042F080521A641B6C03F080530193019BEE
:1033E0003B6843F480733B60FEF7ACFE80463B686D
:1033F000DA0540F1EE807C4F3B6F13F4407340F0F0
:10340000FB80236C03F44072B2F5407F764A40F0B3
:103410001681916823F0704021F4F81120F4407077
:1034200001439160116FC3F30B030B4313672368D0
:10343000D90642BF6E4B94F858201A6023681A06CA
:1034400008D56949E06CD1F8942022F44002024387
:10345000C1F894205F0608D56349A06CD1F8942088
:1034600022F080620243C1F89420D8050CD55E4852
:10347000616DD0F8942022F000620A43B1F1006F30
:10348000C0F8942008BF0125990508D55649606CFD
:10349000D1F8942022F080520243C1F894205A05BA
:1034A00000F1D180012E40F0DC80524E4E4F0023BF
:1034B0003360FEF747FE80463B681B0100F1258123
:1034C0002268D00701D5A36B1BB1910715D5E36B1B
:1034D0009BB94549D1F88430D1F8840003F44033D6
:1034E00000F07060034360680343A06843EA801300
:1034F000606943EA0073C1F88430530703D5236B36
:10350000B3F5801F05D0170720D5636BB3F5800F87
:103510001CD13549D1F88430D1F8840003F440330C
:1035200000F0E040034360680343A06843EA80136F
:10353000206943EA0063C1F88430D1F88C00A36AA3
:1035400020F01F00013B0343C1F88C3050051BD510
:10355000236DB3F1005F17D123486768D0F884105A
:10356000D0F8843003F0E0433B43A768C1F3014146
:10357000013143EA871343EA4163E16849080139AD
:1035800043EA0143C0F88430110511D52369A268CC
:103590001B0643EA821362681343626943EA0273BB
:1035A000E2685208013A43EA02430F4AC2F8843003
:1035B00001233360FEF7C6FD0B4E074633681A0140
:1035C00053D4FEF7BFFDC01B0228F7D908E001263F
:1035D000F7E6FEF7B7FDA0EB080002287FF607AF7D
:1035E000032003B0BDE8F0830038024000700040C3
:1035F000E011474268004742226C02F44072934255
:103600003FF4FFAE3B6F4B4A0121116023F440733E
:10361000002111603B673B6FDB077FF5F2AEFEF7E1
:1036200091FD41F2883980463B6F98073FF5E9AE3E
:10363000FEF788FDA0EB08004845F5D9D0E7916872
:1036400021F4F811EDE63C48216DD0F8942022F0E9
:1036500000520A43B1F1005FC0F894207FF422AF1A
:1036600023E7B3F5006F3FF420AF012D4BD1334D6D
:10367000314E00232B60FEF765FD074633689B0043
:103680004BD421684E0701D5236B1BB108071AD50F
:10369000636BC3B9284AA069D2F8883003F4403379
:1036A0000343E06943EA8013606A43EA0063C2F8B7
:1036B0008830D2F88C30E06A23F4F853013843EABA
:1036C0000023C2F88C30CA0514D5636DB3F1006FC6
:1036D00010D11949A269D1F8883003F070631343FF
:1036E000E26943EA8213226A5208013A43EA02433A
:1036F000C1F8883001232B60FEF724FD0E4C0546EF
:1037000023689B000FD500206BE7FEF71BFDA0EBA5
:10371000080002287FF6D0AE62E7FEF713FDC01B5B
:103720000228ABD95CE7FEF70DFD401B0228E7D964
:1037300056E700BF400E4742003802407000474243
:10374000204908B58B6803F00C03082B07D00C2B1D
:1037500020D01D4A1D48042B18BF104608BD4A68DA
:103760004B68496813F4800314BF18481648C1F326
:10377000881118BF002302F03F02A1FB000110F0E6
:103780001FFE104B5B68C3F3014301335B00B0FBCA
:10379000F3F008BD4A684B68496813F4800314BF0E
:1037A0000A480948C1F3881118BF002302F03F02FC
:1037B000A1FB000110F004FE024B5B68C3F302732F
:1037C000E5E700BF003802400024F40000127A0050
:1037D00003682DE9F341DF07044610D423689E07F0
:1037E00067D423681A0700F1B28023685B0700F1F1
:1037F000D080A269002A40F0398100201EE0974B5A
:103800009A6802F00C02042A10D09A6802F00C02A6
:10381000082A02D15B685D0208D4904B9A6802F0D6
:103820000C020C2A0DD15A6850020AD58B4B1B682A
:103830009903D3D56368002BD0D1012002B0BDE835
:10384000F0816268B2F5803F11D11A6842F480328B
:103850001A60FEF777FC814D06462B689A03BDD4AB
:10386000FEF770FC801B6428F7D90320E6E77B4D48
:10387000B2F5A02F2B6807D143F480232B602B686F
:1038800043F480332B60E4E723F480332B602B6810
:1038900023F480232B60002ADBD1FEF753FC06467D
:1038A0002B689B039AD5FEF74DFC801B6428F7D943
:1038B000DBE76A4B9A6812F00C0F10D09A6802F09E
:1038C0000C02082A02D15B685F0208D5634A93683C
:1038D00003F00C030C2B11D153685E020ED45F4B26
:1038E0001A68950702D5E268012AA6D11A682169EB
:1038F00022F0F80242EAC1021A6072E7E268584B0D
:10390000B2B101221A60FEF71DFC544D06462B6829
:10391000980707D52B68226923F0F80343EAC2030E
:103920002B605EE7FEF70EFC801B0228EFD99CE7B8
:103930001A60FEF707FC494D06462B6899077FF58C
:1039400050AFFEF7FFFB801B0228F6D98DE76269B6
:10395000444B7AB101221A60FEF7F4FB3F4D064654
:103960006B6F9F073FF541AFFEF7ECFB801B022812
:10397000F6D97AE71A60FEF7E5FB384D06466B6F1D
:1039800098077FF532AFFEF7DDFB801B0228F6D9E2
:103990006BE7324B1A6C12F0805228D101921A6CEC
:1039A00042F080521A641B6C03F080530193019B18
:1039B00001262D4D2B68D9051BD5A368274D012B5A
:1039C00027D12B6F43F001032B67FEF7BBFB234D81
:1039D000074641F288382B6F9B0739D5002E3FF4FC
:1039E00008AF1E4A136C23F08053136401E70026CE
:1039F000DFE72B6843F480732B60FEF7A3FB0746D9
:103A00002B68DA05D9D4FEF79DFBC01B0228F7D935
:103A10002BE7052B04D12B6F43F004032B67D0E772
:103A20002A6F22F001022A672A6F22F004022A6715
:103A3000002BCAD1FEF786FB41F2883807462B6F70
:103A40009807CBD5FEF77EFBC01B4045F7D90CE7A6
:103A5000FEF778FBC01B4045BDD906E700380240A1
:103A600000004742800E474200700040234DAB6883
:103A700003F00C03082B3FF4E0AE214E0023022A92
:103A800033602DD1FEF75EFB07462B68990121D4E8
:103A9000226AE3691343626A43EA8213E26A43EAF1
:103AA0000263226B43EA0273A26A144C5208013A81
:103AB00043EA02436B6001233360FEF743FB054694
:103AC00023689A013FF599AEFEF73CFB401B0228A4
:103AD000F6D9CAE6FEF736FBC01B0228D5D9C4E6E4
:103AE000FEF730FB04462B689B017FF586AEFEF7A0
:103AF00029FB001B0228F6D9B7E600BF00380240B8
:103B00006000474203685A6822F0E0025A60426847
:103B1000B2F5827F0AD18268B2F5004F02D0B2F5C9
:103B2000806F03D11A6822F040021A60826AB2F5EF
:103B3000005F09D11A6822F400521204120C1A60B4
:103B40001A6842F400521A60012380F851300023B1
:103B500080F850300320704770B505460C46164675
:103B600029688B689B0701D5002070BD621CF8D0C6
:103B700024B92846BDE87040FFF7C4BFFEF7E2FA5B
:103B8000801B8442ECD8F4E72DE9F041DDF8188081
:103B900005460F4616461C462B6898683840B042CA
:103BA00002D10020BDE8F081621CF6D024B928467D
:103BB000BDE8F041FFF7A6BFFEF7C4FAA0EB08008E
:103BC0008442E9D8F3E713B50B4600928021002226
:103BD0000446FFF7D9FF20B1636D43F0200363650E
:103BE000032002B010BD704738B5044600283BD012
:103BF00090F8513003F0FF021BB980F85020FFF716
:103C0000F2FF2168A568A06AA269022384F85130F6
:103C10000B6823F040030B6063682B43E5682B437C
:103C200025692B4365692B43E5692B43256A2B43A3
:103C3000034302F400752B430B60120C636AB0F56A
:103C4000005F02F0040242EA030208BFE36A4A602E
:103C500008BF0B61CB6923F40063CB610020012313
:103C6000606584F8513038BD012038BD2DE9F3413D
:103C70001E4690F85030012B04460D46904600F049
:103C8000BA80012380F85030FEF75CFA074694F8BA
:103C90005100C0B2012840F0AC80002D5FD0B8F1D7
:103CA000000F5CD0032384F8513000236365A363C5
:103CB000A4F83680A387E38763642364A36822683B
:103CC0002563B3F5004F08BF1368A4F8348004BF20
:103CD00043F480431360A36AB3F5005F09D113680E
:103CE00023F400531B041B0C1360136843F40053AC
:103CF000136013685B065EBF136843F040031360F4
:103D0000E368B3F5006F63683AD11BB1E38E9BB2F1
:103D1000012B06D135F8023BD360E38E013B9BB209
:103D2000E386E38E9BB283B93A4631462046FFF7DD
:103D300013FF98B93A4631462046FFF744FF002862
:103D400040D020236365012009E023689A6890072A
:103D500003D535F8022BDA60DFE74EB903200123E3
:103D600084F85130002384F8503002B0BDE8F0816F
:103D7000711CD6D0FEF7E6F9C01B8642D1D8EDE71C
:103D80001BB1E38E9BB2012B06D115F8013B1373D7
:103D9000E38E013B9BB2E386E38E9BB2002BC3D044
:103DA00023689A68920703D515F8012B1A73EFE779
:103DB000002ED3D0731CEFD0FEF7C4F9C01B86428F
:103DC000EAD8CBE7A36833B901932368DA68019294
:103DD0009B680193019BA36AB3F5005F01BF226852
:103DE000136843F480531360606D003018BF0120E6
:103DF000B5E70220B3E70220B7E72DE9F04385B02D
:103E000099460023ADF80A3090F850300C9E012BF3
:103E100004460D46904600F04581012380F850305D
:103E2000FEF790F994F851306168DBB2012B074638
:103E30000AD0B1F5827F40F03381A268002A40F0B9
:103E40002F81042B40F02C81002D00F01B81B8F154
:103E5000000F00F01781B9F1000F00F0138194F802
:103E60005130C4F83880012B04BF052384F8513049
:103E70000023636523646364A36AA4F83E90B3F5EA
:103E8000005FA4F83C902563A4F83690A4F8349021
:103E9000236809D11A6822F400521204120C1A6025
:103EA0001A6842F400521A601A6850065EBF1A6817
:103EB00042F040021A60E268B2F5006F6BD119B1AE
:103EC000E28E92B2012A06D135F8022BDA60E38E37
:103ED000013B9BB2E3864FF00109E38E9BB2B3B97D
:103EE000E38F9BB29BB9A36AB3F5005F40F0AE804D
:103EF00001220097334611462046FFF745FE002871
:103F000000F09D80636D43F00203636535E0B9F115
:103F1000000F1BD0E38E9BB2C3B122689368990750
:103F200014D535F8023BD360E38E013B9BB2E386A8
:103F3000E38E1FFA83F9B9F1000F29D1A16AB1F517
:103F4000005F03D1116841F480511160E38F9BB28F
:103F500063B123689A68D20708D5DB6828F8023B6A
:103F6000E38F013B9BB2E3874FF00109701CB4D093
:103F7000FEF7E8F8C01B8642AFD80325012384F87A
:103F80005130002384F85030284605B0BDE8F08356
:103F90004FF00009DAE719B1E28E92B2012A06D198
:103FA00015F8012B1A73E38E013B9BB2E3864FF0A9
:103FB0000109E38E9BB21BB9E38F9BB2002B92D019
:103FC000B9F1000F21D0E38E9BB2F3B123689A6858
:103FD00091071AD529781973E38E013B9BB2E386CA
:103FE000E38E1FFA83F96A1CB9F1000F0AD1A16AA6
:103FF000B1F5005F04D12068016841F4805101608F
:10400000154602E015464FF00009E38F9BB273B1ED
:1040100023689A68D2070AD5DB6888F80030E38FF6
:10402000013B9BB2E38708F101084FF00109731CC3
:10403000BFD0FEF787F8C01B8642BAD89DE7236839
:10404000DB689BB2ADF80A30BDF80A30226895688B
:1040500015F0100507D0636D43F0020363654FF65A
:10406000EF73936001253A4631462046FFF774FD11
:10407000002882D13A4631462046FFF7A4FD18B108
:1040800020236365012579E7A368002B7FF476AFD1
:1040900003932368DA6803929B680393039B6DE79D
:1040A00002256BE702256FE72DE9FF411D4600233E
:1040B000ADF80E304368B3F5827F04460E46904655
:1040C0000CD1836853B9042380F85130134600950E
:1040D0000A46FFF792FE04B0BDE8F08194F8503034
:1040E000012B00F0CD80012384F85030FEF72AF830
:1040F000074694F85100C0B2012840F0BF80002E5E
:104100007DD0B8F1000F7AD0042384F85130002319
:1041100063652363A4F83E80A386E3862364636417
:10412000A36AA663B3F5005FA4F83C8023680DD1B1
:104130001A6822F400521204120C1A601A6842F42F
:1041400000521A60E28F013A92B2E287A268B2F599
:10415000004F02BF1A6822F480421A601A685106A2
:104160005EBF1A6842F040021A60E368CBB1E38F89
:104170009BB2D3B123689A68D0074FD5DB6826F885
:10418000023BE38F013B9BB2E387F0E723689A6829
:10419000D20732D51B7B06F8013BE38F013B9BB274
:1041A000E387E38F9BB2002BF0D1A36AB3F5005FE6
:1041B00045D12268136843F48053136001220097AD
:1041C0002B4611462046FFF7DFFCB8B9E368B3F58C
:1041D000006F23684FF001020BBFDB681B7B33804D
:1041E000337000972B4611462046FFF7CDFCF8B1FF
:1041F000636D43F00203636500E03DB903200123D2
:1042000084F85130002384F8503064E76B1CC8D028
:10421000FDF798FFC01B8542C3D8EFE7002DEDD016
:10422000691CA4D0FDF78EFFC01B85429FD8E5E72F
:104230002368DB689BB2ADF80E30BDF80E306368C2
:10424000B3F5827F23680AD1A268B2F5004F02D08D
:10425000B2F5806F03D11A6822F040021A609A68A2
:10426000D20606D5626D42F0020262654FF6EF7229
:104270009A60606D003018BF0120C0E70220BEE7E1
:10428000022028E7704700002E4A0368904212D0AF
:10429000B0F1804F0FD0A2F57C4290420BD002F5D6
:1042A0008062904207D002F58062904203D002F50E
:1042B000784290421DD14A6823F070031343214A8B
:1042C000904204D1CA6823F44073134328E0B0F14C
:1042D000804FF7D01C4A9042F4D002F580629042A1
:1042E000F0D002F580629042ECD002F57842904224
:1042F000E8D0164A9042E5D002F580629042E1D0C3
:1043000002F580629042DDD0A2F598329042D9D079
:1043100002F580629042D5D002F580629042D1D001
:1043200003608B68C3620B688362064B984206D0B9
:1043300003F58063984202D00123436170470B6903
:104340000363F9E700000140000400400040014021
:1043500010B50446A0B190F8393003F0FF021BB944
:1043600080F83820FFF78EFF022384F83930206868
:10437000211DFFF789FF012384F83930002010BD8B
:10438000012010BD036A10B501248C4023EA040308
:104390000362036A8A401A43026210BD10B50446E4
:1043A00001220068FFF7EEFF2368084A934203D01A
:1043B00002F58062934203D15A6C42F400425A647F
:1043C0001A6842F001021A60002010BD000001408E
:1043D000FFF7E4BF2DE9F0470668C2683369C16999
:1043E00023F4405313433361044683680069F26841
:1043F0000343606922F41642034322F00C020B438C
:104400001343F3607369A26923F440731343B1F556
:10441000004F73617A4B7CD19E4203D003F58063D9
:104420009E4244D1FEF756FF192505FB00F3606854
:104430004FF064094000B3FBF0F3B3FBF9F34FEA2C
:104440000318FEF747FF636868435B00B0FBF3F7B0
:10445000FEF740FF636868435B00B0FBF3F3B3FB18
:10446000F9F309FB1373DB003233B3FBF9F35B00A1
:1044700003F4F877FEF72EFF626868435200B0FB42
:10448000F2FAFEF727FF636868435B00B0FBF3F3C3
:10449000B3FBF9F309FB13A3DB003233B3FBF9F3EE
:1044A00003F0070343443B44B360BDE8F087FEF7E5
:1044B00001FF192505FB00F360684FF06409400017
:1044C000B3FBF0F3B3FBF9F34FEA0318FEF7F2FE88
:1044D000636868435B00B0FBF3F7FEF7EBFE6368CD
:1044E00068435B00B0FBF3F3B3FBF9F309FB137311
:1044F000DB003233B3FBF9F35B0003F4F877FEF72C
:10450000D9FE626868435200B0FBF2FAFEF7D2FEB1
:10451000B9E79E4202D03B4B9E4240D1FEF7DAFE05
:10452000676819254FF0640905FB00F3BF00B3FB72
:10453000F7F3B3FBF9F31F01FEF7CCFE63686843A2
:104540009B00B0FBF3F8FEF7C5FE636868439B0071
:10455000B0FBF3F3B3FBF9F309FB13831B01323315
:10456000B3FBF9F303F0F008FEF7B4FE62686843AA
:104570009200B0FBF2FAFEF7ADFE636868439B0061
:10458000B0FBF3F3B3FBF9F309FB13A31B013233C5
:10459000B3FBF9F303F00F0343EA080383E7FEF7E5
:1045A00089FE676819254FF0640905FB00F3BF0019
:1045B000B3FBF7F3B3FBF9F31F01FEF77BFE636870
:1045C00068439B00B0FBF3F8FEF774FE6368684332
:1045D0009B00B0FBF3F3B3FBF9F309FB13831B015F
:1045E0003233B3FBF9F303F0F008FEF763FE6268C1
:1045F00068439200B0FBF2FAFEF75CFEBDE700BF35
:104600000010014000140140704710B5044640B34B
:1046100090F8393003F0FF021BB980F83820FFF71B
:10462000F3FF2268242384F83930D36823F400533D
:10463000D3602046FFF7CEFE23681A6922F4904229
:104640001A615A6922F02A025A61DA6842F4005269
:10465000DA6000202023E06384F8393084F83A30AF
:1046600010BD012010BD00000FB407B5064B07496F
:104670001B6805AAD868019203F05AFF03B05DF8E1
:1046800004EB04B0704700BF58040020C05C010870
:104690000268136823F0400310B513600446FFF767
:1046A000A3FA10B1054801F0CBFBA36823B9226837
:1046B000136843F04003136010BD00BFF95C0108AC
:1046C0002DE9F04F884687B004465949BDF940604E
:1046D000404615461F4600F069FD5649814628466A
:1046E00000F064FD54490190384600F05FFD5349E5
:1046F0008246304600F05AFD019B834619464846E3
:1047000000F02EFD59468146504600F029FD014635
:10471000484600F025FDE065013004D16F2248498C
:10472000484800F0D1FE484BE26D9A424FF000033A
:104730004BD10293454B5A6C42F480525A645B6CE5
:1047400003F480530293029B232384F858303849A2
:10475000404600F0E1FC3749284600F0DDFC3649D0
:10476000384600F0D9FC731CA4F86050A4F86280AD
:10477000A4F86470A4F8666057D03049304600F061
:10478000CBFC4FF48023A361E36D236001354FF42C
:10479000827308BF4FF4004263604FF03803E36157
:1047A00008BFA2604FF000034FF0070218BFA360DC
:1047B00063612361A362E262E36023626362204675
:1047C000FFF766FF07B0BDE8F08F21498A420CD1A0
:1047D00003931E4B1A6C42F480421A641B6C03F460
:1047E00080430393039B2423AFE71A498A420CD1E9
:1047F0000493164B1A6C42F400421A641B6C03F4C7
:1048000000430493049B33239FE713498A429ED1BC
:1048100005930E4B5A6C42F400525A645B6C03F4DD
:1048200000530593059B54238FE74FF40073AAE7C9
:1048300088620108346201080C630108786301088A
:104840000F5D01086C5D0108003001400038024036
:1048500000380040003C00400034014010290CBFEB
:104860004FF400610021012A10B50446C16023D035
:10487000022A24D032BB02616261A269B2F5007FD4
:1048800005D0002B14BF00224FF48022A261002B20
:1048900014BF00234FF48273636008D0A368B3F59C
:1048A000004F04D10948FFF7DFFE0023A360204634
:1048B000BDE81040FFF7ECBE00210161DCE70261BA
:1048C0000022D9E7022202610122D5E7C05C01087B
:1048D00070B504460E46FEF79FFB0023022290FBB4
:1048E000F2F0B042DDB203DD0133082B09D1072518
:1048F000054B33F81530E3612046BDE87040FFF703
:10490000C7BE90FBF2F0ECE73066010807B583689C
:104910000191B3F5004F024607D10A23012201A9F4
:10492000FFF7A4F903B05DF804FBC36D996889072C
:10493000FCD5D168019AB1F5006F0CBF92B2D2B22A
:10494000DA609A68D207FCD5D868B1F5006F0CBF61
:1049500080B2C0B2E6E72DE9F84F0A9E84689DF860
:104960002CB09642354680468A4617469946B8BFCF
:10497000154694B9AC4202DB2846BDE8F88FBC422C
:10498000B4BF1AF8041059464046FFF7BFFFB442BF
:10499000B8BF09F804000134ECE73AB10A235343E5
:1049A00092B2FFF763F9002818BF0025002EE3D06C
:1049B0000A237343B2B249464046FFF775FB00280D
:1049C00018BF0025D8E700000D4AD2F8883043F41C
:1049D0007003C2F888300B4B1A68002142F00102C4
:1049E0001A6099601A6822F0847222F480321A6088
:1049F000054A5A601A6822F480221A60D96070470A
:104A000000ED00E00038024010300024F0B5ADB0F9
:104A10002C4B002101911A6C42F080521A641B6CDD
:104A200003F080530193019B274B02911A6842F4D3
:104A300040421A601B6803F440430293029B012327
:104A40000893002839D14FF4803309934FF4800341
:104A50000F934FF4B47302250826119308A8072377
:104A60000E951096129513931495FEF7B1FE38BB70
:104A7000FEF74AFB074618BB4FF4C0731C934FF474
:104A80008073159315A84FF000632A931B961D960B
:104A9000FEF74EFC0F2303934FF4A053069305211A
:104AA0004FF4805303A8049505970793FEF768FB1E
:104AB000B0FA80F040092DB0F0BD4FF4A023C4E758
:104AC0000020F8E7003802400070004030B5ADB07B
:104AD0000023294A0193116C41F080511164126C3A
:104AE00002F080520192019A244A0293116841F423
:104AF000404111601268099302F440420292029A06
:104B00000F9303224FF4B4730892012202240B92F4
:104B100011931022062308A80C920E94109212945E
:104B20001393FEF755FE10B100202DB030BDFEF7F7
:104B3000EBFA05460028F7D108231B931D934FF489
:104B40008073C022159315A84FF000631C922A931E
:104B5000FEF7EEFB0F2303934FF4A05306930521BA
:104B60004FF4805303A8049405950793FEF708FBC0
:104B7000B0FA80F04009D8E70038024000700040E9
:104B800008B50120FFF742FF38B9FFF79FFF20B9B2
:104B90000248BDE8084001F053B908BD875D01082F
:104BA000174A1849936803F00C03042B10B50DD075
:104BB000082B0DD0144B0B60114B144A9B68C3F3A8
:104BC0000313D25C0B68D3400B6010BD104BF2E7AF
:104BD0005468506852686302C2F3881200F03F00C4
:104BE0004CBF0B4B084BB3FBF0F35343044A5268E2
:104BF000C2F3014201325200B3FBF2F3DBE700BF24
:104C000000380240D80200200024F4004066010869
:104C100000127A00074B084A13601A69910707D5FA
:104C2000DA68920704D56FF002021A6100F08AB9BF
:104C3000704700BF000C0040EC1600200048704791
:104C40005866010830B589B001A903A8FEF752FBE8
:104C5000FEF730FB002302931E4B01901A6C1E4C92
:104C600042F008021A641A6C02F008020292029AD8
:104C70001A6A42F008021A621A6A22F008021A62DC
:104C8000069AA3F50B3323604FF0FF33E360134B19
:104C9000F2B9B0FBF3F00138002560600E482561E1
:104CA000A5606561FFF754FB0D4B0E4A9B680A48EF
:104CB000C3F808210C4B4FF480225A602946FFF7B5
:104CC00087FB2268D36823F00203D36009B030BDAC
:104CD0004000DEE700380240EC16002040420F00A2
:104CE00000ED00E0154C000800E100E0014B586ABF
:104CF000704700BF000C0040054B1B686FF00202BC
:104D000058631A61DA6842F00202DA60704700BF45
:104D1000EC160020064B1B686FF002021A615A69FC
:104D200042F002025A61DA6842F00202DA60704729
:104D3000EC160020034B1A68D36823F00203D360FB
:104D4000704700BFEC160020FFF7F4BF024B1B6852
:104D50006FF002021A617047EC16002003689B682E
:104D600018470000094B10B5002203600023C0E97A
:104D70000223002303614361044600F0DFF8044985
:104D8000A06100F097FE204610BD00BF68660108D4
:104D90005D4D000807B5009000F10801806900F042
:104DA000C8FE03B05DF804FB00F10801806900F063
:104DB000E9BE000010B5034B03600446FFF7F4FFA3
:104DC000204610BD6866010870B5D0E90823D0E917
:104DD0000245064612196B41FFF7DCFF736B2BB1DE
:104DE00006F128001B68BDE87040184770BDD0B5BB
:104DF000044616461F4600F0BBFC2046FFF7D4FFD2
:104E0000C4E90867A06900F0D8FE321847EB010337
:104E10002046FFF7BFFFBDE8D04000F0BFBC7FB524
:104E2000044600F0A5FC2046FFF7BEFF636B13B1FC
:104E300094F83830E3B904F128066D4610220021B9
:104E4000684606F087FCAE420BD03046FBF716FCF6
:104E50003EB1039B1BB15B68694630469847039B94
:104E600063632846FBF70AFC00F098FC04B070BDB1
:104E700000F00CFBDFE700001FB5436B044600F1B8
:104E8000280113B15B6868469847636B039320461B
:104E9000FFF7C5FF039B2BB940F2392206490748AB
:104EA00000F012FB039B68461B6898476846FBF7B7
:104EB000E5FB04B010BD00BF9B5D0108F65D010875
:104EC00070B50E4604461546FCF73AFF013609D088
:104ED00020460021FCF758FF29462046BDE87040D7
:104EE000FCF74EBF70BD38B504460D4603685AB195
:104EF0008268136020460121FCF746FF29462046C0
:104F0000BDE83840FCF73CBFC2681B04F1E7002253
:104F1000FFF7D6BF70B50E4604461546FCF710FFE6
:104F2000013606D02A4620460021BDE87040FFF732
:104F3000DABF70BD0022FFF7EDBF000000487047E8
:104F40009C660108024B1B680BB10248184770476A
:104F5000DC0200209C6601087047A0F1BC00FFF74E
:104F6000FBBFA0F1BC00FFF7F7BF00F0F5BAA0F15E
:104F7000BC00FFF7FABF00F0F2BAA0F1BC00FFF7E7
:104F8000FABF000038B504461D46049B00F0EEFA57
:104F9000294604F1BC0001F059F8064B03F1080260
:104FA000226003F128028833C4F8BC20C4F8C03062
:104FB000204638BDC06601080346024A2030FCF78F
:104FC000CFBF00BFF5500008F8B50546134B45F8B4
:104FD000043B04460F4610261C220021284606F0FA
:104FE000B9FB3246002104F1200006F0B3FB324643
:104FF000002104F1300006F0ADFB3246002104F13F
:10500000400006F0A7FB39462046FFF7D5FF2846AB
:105010003946FFF77CFF2046F8BD00BF58670108FE
:1050200010B5084B044640F8203BFDF75BF804F14F
:105030004000FBF723FB04F13000FBF71FFB204689
:1050400010BD00BF5867010810B50446FFF7E8FF20
:105050002046FDF72EFB204610BD884238B5044699
:105060000D460AD0FBF70AFB3CB1EB681BB15B684D
:10507000294620469847EB68E360204638BDF0B5E6
:105080000F4685B0044600F073FBFD6804F130065E
:10509000203465B139463046FFF7DFFF0122012198
:1050A0002046FCF7E5FE00F079FB05B0F0BD1022CC
:1050B0002946684606F04EFB69463046FFF7CDFFAD
:1050C0006846FBF7DBFA2A46E9E70000C36810B53B
:1050D00004462BB940F239220449054800F0F4F99E
:1050E000E36820461B68BDE8104018479B5D010837
:1050F000F65D0108012908B502D0022906D008BDD5
:10510000C36B13B13030FFF7E1FF08BDC36C002B58
:10511000FBD04030F7E7000013B5044601300FD153
:1051200002B010BD9C420AD120468968FDF70CFCF4
:105130000021204602B0BDE81040FDF79DBC0C31B7
:10514000B1F900305A1CEDD10023009322460249E8
:10515000024800F097FEE3E72C5E01083001018071
:10516000884207B502460BD0431C09D001310BD051
:10517000002306490093064800F084FE4FF0FF31FB
:10518000084603B05DF804FB0146F9E7FB5D010842
:1051900030010180B1F900305A1C01D11846704726
:1051A000834201D1486870470C31F3E7421C13B5C4
:1051B00004460BD0FFF7EEFF431C044606D1002344
:1051C000024600930349044800F05CFE204602B00A
:1051D00010BD00BF0C5E01083001018010B480B129
:1051E000146853680CB9DA070BD513F0010F4FEAB6
:1051F00063031CBFC2581459184423465DF8044B7E
:1052000018475DF8044B7047064B19681A1D01B921
:105210001A601B68934204D05E220349034800F0E1
:1052200053B970470C130020365A0108955A0108EB
:1052300070B50A4D2B68834204460ED0061DD0F887
:10524000D020D0F8CC1000233046FFF707FBD4F86D
:10525000D4103046FFF73CFB2C6070BD14130020C7
:10526000036870B59B6804460D46164698470C4B7C
:10527000C4F8CC501B68C4F8D0609C420BD100230A
:1052800032462946201DFFF7E9FA23682046DB68ED
:10529000BDE8704018472046FFF7CAFFF5E700BF9A
:1052A0001413002038B5036804469B680D469847E0
:1052B0002046FFF7BDFF2946201DFFF727FB236887
:1052C0000546DB6820469847284638BDF7B51F4697
:1052D000036804469B680D46164698472046FFF72C
:1052E000A7FF94F8D8300193089B009329463B46CA
:1052F0003246201DFFF72FFB23680546DB6820465A
:105300009847284603B0F0BD2DE9F043064699467C
:10531000274B46F8043B85B0044600250F469046CF
:1053200000219022304606F015FA04AB0295039551
:1053300013E9030004F198021E4B82E80300C4F84D
:10534000A03048F20703C4F8A4301B4BC4F8AC509B
:10535000C4F8A840C4F8B020C4F8B430BFF36F8FCD
:10536000BFF34F8F1022294604F1B80006F0F2F97E
:105370000823C4F8CC30114BC4F8D430FF2384F890
:10538000D830BDF93030009342464B46394630465E
:1053900084F8C85084F8C950C4F8D050FFF790F989
:1053A0002046FFF745FF204605B0BDE8F08300BF6B
:1053B0006867010801A090E8DD51000840420F0035
:1053C000C36810B504460BB19B689847204610BDD2
:1053D00038B5044648B15830A04206D0A0F12C059B
:1053E0001438FFF7EDFF2846F6E7204638BD38B5FC
:1053F00000250446294640F8045B282206F0AAF955
:105400001022294604F1180006F0A4F9204638BD00
:1054100010B50A4C2046FFF7EAFF04F12C00FFF715
:10542000E6FF0023A3652046E365054A84F8603063
:105430000449BDE81040FCF7CFBF00BFA812002010
:10544000C8010020D153000813B50D4C00F090F9AD
:1054500022884FF6FF739A4208D100F09FF900238B
:10546000228800930749084800F00CFD01210448F8
:1054700000F0A2F902B0BDE8104000F08FB900BF03
:10548000181300203D5E01082301048037B50B4D41
:1054900000F06EF92C8844B900F080F92A88009455
:1054A00023460749074800F0EDFC0121034800F0BE
:1054B0008DF903B0BDE8304000F070B9181300203A
:1054C000625E01082401048070B504460D4616464C
:1054D00000F04EF933462A4621460348FCF7A0FE69
:1054E000BDE87040FCF746BE805E0108704770471B
:1054F00010B480B1146853680CB9DA070BD513F0F7
:10550000010F4FEA63031CBFC258145918442346C5
:105510005DF8044B18475DF8044B7047090170B5FE
:1055200001F198050544EB6883B14418D4F8A43020
:105530002BB940F2392206490648FFF7C5FFD4F8D7
:10554000A43028461B68BDE87040184770BD00BFF6
:105550009B5D0108F65D01084C30FDF739BD10B5C3
:105560004C300C46FDF746FD204610BD2DE9F04FAE
:1055700087B000259246009502460195044689466B
:105580009B469DE80300324B42F8083B314B82E8D2
:105590000300236148F2070363612F4BE561A461B7
:1055A00022626362BFF36F8FBFF34F8F102284F8C4
:1055B000285084F8295004F12C0006F0CBF804F1AF
:1055C0004C062946102204F13C0006F0C3F804F111
:1055D000980829464C22304606F0BCF804F1A8078A
:1055E00029461022404606F0B5F8294610223846D2
:1055F00006F0B0F810222946C4F8B8B002A806F0A8
:10560000A9F802A94046FFF728FD02A8FBF736F8E3
:105610001022294602A806F09DF802A93846FFF795
:105620001CFD02A8FBF72AF8524649463046FDF712
:10563000FFFAD4F8B8103046FDF7C2FA30462246D9
:105640000649FDF749FC204607B0BDE8F08F00BFD2
:105650008867010801A090E8F15400081D55000872
:105660002DE9FF410646884656F84C3B17461B6815
:1056700005463C01984700F07BF8D8F80C30983488
:105680002C44ABB1E3680BB9FFF7DEFE4146204680
:10569000FFF7E3FC012239463046FDF729FC00F014
:1056A0007DF82B6828465B68984704B0BDE8F08118
:1056B000E3680BB1FFF7EAFE10220021684606F00E
:1056C00049F869462046FFF7C8FC6846FAF7D6FF56
:1056D0000022E0E77FB51A4B036004461022002148
:1056E000684606F037F8002269462046FFF7B8FF03
:1056F0006846FAF7C3FF10220021684606F02AF830
:10570000012269462046FFF7ABFF6846FAF7B6FF6D
:1057100014F1980608D004F1B805B54204D0103D44
:105720002846FAF7ABFFF8E704F13C00FFF748FE24
:1057300004F12C00FFF744FE204604B070BD00BF0A
:105740008867010810B50446FFF7C4FF2046FCF740
:10575000B0FF204610BDEFF31080C04300F0010001
:105760007047EFF30580003018BF0120704700003C
:1057700010B5074C2368013304D15522054906486A
:10578000FFF7A2FE00F0ECFC23680133236010BD9C
:105790001C130020B15E0108065F0108054B1A6862
:1057A00032B11A68013A1A601B680BB900F0EABC02
:1057B000704700BF1C130020D0E85F3F0B449BB232
:1057C000C0E8523F002AF7D118467047D0E85F3F43
:1057D0005B1A9BB2C0E8523F002AF7D118467047C7
:1057E0002DE9F74F90E8080404465B689847636822
:1057F0001B6A98423FD0DAF82030DAF80840CAF83D
:105800002000A0EB0308DAF80C30314808EA03085E
:10581000844246464FF0000727D0DAE90A239AF877
:105820003AB0A8FB0089CDE900230025BBF1000FA9
:105830002BD05A46404649460EF0A6F8DDE9002333
:1058400012EB080243EB090390465A469946064676
:105850000F460EF0A5F8B8EB000069EB0101A94274
:1058600008BFA0420AD2CAE90A01DAE90C23B61835
:105870005F41CAE90C6703B0BDE8F08F013647F11C
:105880000007001B61EB0501EDE722462B46404671
:1058900049460EF095FD224606460F4640464946CB
:1058A0002B460EF08DFDDDE9008918EB020849EB6F
:1058B0000309A94508BFA04502D2CAE90A89D4E76D
:1058C000013647F10007B8EB040869EB0509F4E776
:1058D00040420F00824206D98A420BD9884294BFC7
:1058E000002001207047884206D98A428CBF0020E0
:1058F0000120704701207047002070472DE9F047D4
:10590000466896F839300746002B5BD1FFF768FFF1
:105910007D68D7F800A06B68002B49D0D5E90C89C9
:10592000D3E90001894508BF804504D3DAF8143073
:10593000BDE8F0471847D5E90623B0EB080861EB4E
:1059400009094B4508BF42452C6906D3AB681E4A7E
:10595000934219D1444528BF44462A6A336A144405
:10596000EA681440A342E1D0DAF8103020469847A4
:105970003B685B68984722460146306AFFF7AAFFFA
:1059800000B33B685B69D3E795F83A205AB14046CB
:1059900049460EF005F80C4A00230EF011FD844232
:1059A00028BF0446D9E7A3FB080103FB0911F2E76E
:1059B0003369306AF26818441040DAF81030BDE8F4
:1059C000F0471847BDE8F08740420F002DE9F04F3F
:1059D0000368054685B01B6898472B689B69984704
:1059E000066804462EB929222F493048304EFFF769
:1059F0006BFD1F23012202FA03F1B1425FFA83FB20
:105A000002D0013BF7D19B46D4F804A0AAF10403CD
:105A10001C2B06D9372224492448FFF755FD4FF0A7
:105A2000200AAAF10403072716F1FF3007FA03F74B
:105A30001F4C4FF0000343F1FF313246C4FB070116
:105A40000EF0BEFC6C682A68002323606360526815
:105A50000393CDE90001904720626C684FF0000885
:105A60004FF000095246C4E90A89A66084F83AB0AA
:105A7000012000210DF094FFDDE90023C4E9062395
:105A8000039B84F8393001380123E0602761284600
:105A9000C4E90C8984F83830FFF7A2FE284605B027
:105AA000BDE8F04FFFF72ABF375F0108E45F010848
:105AB00040420F0038B5436893F8383004460D462D
:105AC0000BB9FFF783FFFFF753FE63681D60BDE866
:105AD0003840FFF763BE70B50446FFF749FE236800
